{
  "_format": "hh-sol-artifact-1",
  "contractName": "Domains",
  "sourceName": "contracts/Domains.sol",
  "abi": [
    {
      "inputs": [
        {
          "internalType": "string",
          "name": "_tld",
          "type": "string"
        }
      ],
      "stateMutability": "payable",
      "type": "constructor"
    },
    {
      "inputs": [
        {
          "internalType": "string",
          "name": "",
          "type": "string"
        }
      ],
      "name": "domains",
      "outputs": [
        {
          "internalType": "address",
          "name": "",
          "type": "address"
        }
      ],
      "stateMutability": "view",
      "type": "function"
    },
    {
      "inputs": [
        {
          "internalType": "string",
          "name": "name",
          "type": "string"
        }
      ],
      "name": "getAddress",
      "outputs": [
        {
          "internalType": "address",
          "name": "",
          "type": "address"
        }
      ],
      "stateMutability": "view",
      "type": "function"
    },
    {
      "inputs": [
        {
          "internalType": "string",
          "name": "name",
          "type": "string"
        }
      ],
      "name": "getRecord",
      "outputs": [
        {
          "internalType": "string",
          "name": "",
          "type": "string"
        }
      ],
      "stateMutability": "view",
      "type": "function"
    },
    {
      "inputs": [
        {
          "internalType": "string",
          "name": "name",
          "type": "string"
        }
      ],
      "name": "price",
      "outputs": [
        {
          "internalType": "uint256",
          "name": "",
          "type": "uint256"
        }
      ],
      "stateMutability": "pure",
      "type": "function"
    },
    {
      "inputs": [
        {
          "internalType": "string",
          "name": "",
          "type": "string"
        }
      ],
      "name": "records",
      "outputs": [
        {
          "internalType": "string",
          "name": "",
          "type": "string"
        }
      ],
      "stateMutability": "view",
      "type": "function"
    },
    {
      "inputs": [
        {
          "internalType": "string",
          "name": "name",
          "type": "string"
        }
      ],
      "name": "register",
      "outputs": [],
      "stateMutability": "payable",
      "type": "function"
    },
    {
      "inputs": [
        {
          "internalType": "string",
          "name": "name",
          "type": "string"
        },
        {
          "internalType": "string",
          "name": "record",
          "type": "string"
        }
      ],
      "name": "setRecord",
      "outputs": [],
      "stateMutability": "nonpayable",
      "type": "function"
    },
    {
      "inputs": [],
      "name": "tld",
      "outputs": [
        {
          "internalType": "string",
          "name": "",
          "type": "string"
        }
      ],
      "stateMutability": "view",
      "type": "function"
    }
  ],
  "bytecode": "0x6080604052604051620016a1380380620016a1833981810160405281019062000029919062000391565b80600090805190602001906200004192919062000144565b50620000716040518060600160405280602281526020016200167f602291396200007860201b6200076d1760201c565b50620004c8565b62000118816040516024016200008f91906200043f565b6040516020818303038152906040527f41304fac000000000000000000000000000000000000000000000000000000007bffffffffffffffffffffffffffffffffffffffffffffffffffffffff19166020820180517bffffffffffffffffffffffffffffffffffffffffffffffffffffffff83818316178352505050506200011b60201b60201c565b50565b60008151905060006a636f6e736f6c652e6c6f679050602083016000808483855afa5050505050565b828054620001529062000492565b90600052602060002090601f016020900481019282620001765760008555620001c2565b82601f106200019157805160ff1916838001178555620001c2565b82800160010185558215620001c2579182015b82811115620001c1578251825591602001919060010190620001a4565b5b509050620001d19190620001d5565b5090565b5b80821115620001f0576000816000905550600101620001d6565b5090565b6000604051905090565b600080fd5b600080fd5b600080fd5b600080fd5b6000601f19601f8301169050919050565b7f4e487b7100000000000000000000000000000000000000000000000000000000600052604160045260246000fd5b6200025d8262000212565b810181811067ffffffffffffffff821117156200027f576200027e62000223565b5b80604052505050565b600062000294620001f4565b9050620002a2828262000252565b919050565b600067ffffffffffffffff821115620002c557620002c462000223565b5b620002d08262000212565b9050602081019050919050565b60005b83811015620002fd578082015181840152602081019050620002e0565b838111156200030d576000848401525b50505050565b60006200032a6200032484620002a7565b62000288565b9050828152602081018484840111156200034957620003486200020d565b5b62000356848285620002dd565b509392505050565b600082601f83011262000376576200037562000208565b5b81516200038884826020860162000313565b91505092915050565b600060208284031215620003aa57620003a9620001fe565b5b600082015167ffffffffffffffff811115620003cb57620003ca62000203565b5b620003d9848285016200035e565b91505092915050565b600081519050919050565b600082825260208201905092915050565b60006200040b82620003e2565b620004178185620003ed565b935062000429818560208601620002dd565b620004348162000212565b840191505092915050565b600060208201905081810360008301526200045b8184620003fe565b905092915050565b7f4e487b7100000000000000000000000000000000000000000000000000000000600052602260045260246000fd5b60006002820490506001821680620004ab57607f821691505b60208210811415620004c257620004c162000463565b5b50919050565b6111a780620004d86000396000f3fe60806040526004361061007b5760003560e01c8063bf40fac11161004e578063bf40fac114610162578063c1880a981461019f578063f2c298be146101c8578063fe2c6198146101e45761007b565b806311dd88451461008057806326449235146100bd5780632d551432146100fa578063541e771d14610125575b600080fd5b34801561008c57600080fd5b506100a760048036038101906100a29190610b9c565b610221565b6040516100b49190610c82565b60405180910390f35b3480156100c957600080fd5b506100e460048036038101906100df9190610dd4565b6102d4565b6040516100f19190610e5e565b60405180910390f35b34801561010657600080fd5b5061010f61031d565b60405161011c9190610c82565b60405180910390f35b34801561013157600080fd5b5061014c60048036038101906101479190610dd4565b6103ab565b6040516101599190610c82565b60405180910390f35b34801561016e57600080fd5b5061018960048036038101906101849190610b9c565b610461565b6040516101969190610e5e565b60405180910390f35b3480156101ab57600080fd5b506101c660048036038101906101c19190610e79565b6104ac565b005b6101e260048036038101906101dd9190610b9c565b61055a565b005b3480156101f057600080fd5b5061020b60048036038101906102069190610b9c565b6106c7565b6040516102189190610f13565b60405180910390f35b606060028383604051610235929190610f5e565b9081526020016040518091039020805461024e90610fa6565b80601f016020809104026020016040519081016040528092919081815260200182805461027a90610fa6565b80156102c75780601f1061029c576101008083540402835291602001916102c7565b820191906000526020600020905b8154815290600101906020018083116102aa57829003601f168201915b5050505050905092915050565b6001818051602081018201805184825260208301602085012081835280955050505050506000915054906101000a900473ffffffffffffffffffffffffffffffffffffffff1681565b6000805461032a90610fa6565b80601f016020809104026020016040519081016040528092919081815260200182805461035690610fa6565b80156103a35780601f10610378576101008083540402835291602001916103a3565b820191906000526020600020905b81548152906001019060200180831161038657829003601f168201915b505050505081565b60028180516020810182018051848252602083016020850120818352809550505050505060009150905080546103e090610fa6565b80601f016020809104026020016040519081016040528092919081815260200182805461040c90610fa6565b80156104595780601f1061042e57610100808354040283529160200191610459565b820191906000526020600020905b81548152906001019060200180831161043c57829003601f168201915b505050505081565b600060018383604051610475929190610f5e565b908152602001604051809103902060009054906101000a900473ffffffffffffffffffffffffffffffffffffffff16905092915050565b3373ffffffffffffffffffffffffffffffffffffffff16600185856040516104d5929190610f5e565b908152602001604051809103902060009054906101000a900473ffffffffffffffffffffffffffffffffffffffff1673ffffffffffffffffffffffffffffffffffffffff161461052457600080fd5b818160028686604051610538929190610f5e565b90815260200160405180910390209190610553929190610a80565b5050505050565b600073ffffffffffffffffffffffffffffffffffffffff1660018383604051610584929190610f5e565b908152602001604051809103902060009054906101000a900473ffffffffffffffffffffffffffffffffffffffff1673ffffffffffffffffffffffffffffffffffffffff16146105d357600080fd5b60006105df83836106c7565b905080341015610624576040517f08c379a000000000000000000000000000000000000000000000000000000000815260040161061b90611024565b60405180910390fd5b3360018484604051610637929190610f5e565b908152602001604051809103902060006101000a81548173ffffffffffffffffffffffffffffffffffffffff021916908373ffffffffffffffffffffffffffffffffffffffff1602179055506106c26040518060400160405280601c81526020017f2573206861732072656769737465726564206120646f6d61696e20210000000081525033610806565b505050565b60008061071784848080601f016020809104026020016040519081016040528093929190818152602001838380828437600081840152601f19601f820116905080830192505050505050506108a2565b90506000811161072657600080fd5b6003811415610740576706f05b59d3b20000915050610767565b600481141561075a57670429d069189e0000915050610767565b67016345785d8a00009150505b92915050565b610803816040516024016107819190610c82565b6040516020818303038152906040527f41304fac000000000000000000000000000000000000000000000000000000007bffffffffffffffffffffffffffffffffffffffffffffffffffffffff19166020820180517bffffffffffffffffffffffffffffffffffffffffffffffffffffffff8381831617835250505050610a57565b50565b61089e828260405160240161081c929190611044565b6040516020818303038152906040527f319af333000000000000000000000000000000000000000000000000000000007bffffffffffffffffffffffffffffffffffffffffffffffffffffffff19166020820180517bffffffffffffffffffffffffffffffffffffffffffffffffffffffff8381831617835250505050610a57565b5050565b60008060008084519050600092505b80821015610a4c5760008583815181106108ce576108cd611074565b5b602001015160f81c60f81b9050608060f81b817effffffffffffffffffffffffffffffffffffffffffffffffffffffffffffff1916101561091d5760018361091691906110d2565b9250610a38565b60e060f81b817effffffffffffffffffffffffffffffffffffffffffffffffffffffffffffff1916101561095f5760028361095891906110d2565b9250610a37565b60f060f81b817effffffffffffffffffffffffffffffffffffffffffffffffffffffffffffff191610156109a15760038361099a91906110d2565b9250610a36565b60f8801b817effffffffffffffffffffffffffffffffffffffffffffffffffffffffffffff191610156109e2576004836109db91906110d2565b9250610a35565b60fc60f81b817effffffffffffffffffffffffffffffffffffffffffffffffffffffffffffff19161015610a2457600583610a1d91906110d2565b9250610a34565b600683610a3191906110d2565b92505b5b5b5b5b508280610a4490611128565b9350506108b1565b829350505050919050565b60008151905060006a636f6e736f6c652e6c6f679050602083016000808483855afa5050505050565b828054610a8c90610fa6565b90600052602060002090601f016020900481019282610aae5760008555610af5565b82601f10610ac757803560ff1916838001178555610af5565b82800160010185558215610af5579182015b82811115610af4578235825591602001919060010190610ad9565b5b509050610b029190610b06565b5090565b5b80821115610b1f576000816000905550600101610b07565b5090565b6000604051905090565b600080fd5b600080fd5b600080fd5b600080fd5b600080fd5b60008083601f840112610b5c57610b5b610b37565b5b8235905067ffffffffffffffff811115610b7957610b78610b3c565b5b602083019150836001820283011115610b9557610b94610b41565b5b9250929050565b60008060208385031215610bb357610bb2610b2d565b5b600083013567ffffffffffffffff811115610bd157610bd0610b32565b5b610bdd85828601610b46565b92509250509250929050565b600081519050919050565b600082825260208201905092915050565b60005b83811015610c23578082015181840152602081019050610c08565b83811115610c32576000848401525b50505050565b6000601f19601f8301169050919050565b6000610c5482610be9565b610c5e8185610bf4565b9350610c6e818560208601610c05565b610c7781610c38565b840191505092915050565b60006020820190508181036000830152610c9c8184610c49565b905092915050565b600080fd5b7f4e487b7100000000000000000000000000000000000000000000000000000000600052604160045260246000fd5b610ce182610c38565b810181811067ffffffffffffffff82111715610d0057610cff610ca9565b5b80604052505050565b6000610d13610b23565b9050610d1f8282610cd8565b919050565b600067ffffffffffffffff821115610d3f57610d3e610ca9565b5b610d4882610c38565b9050602081019050919050565b82818337600083830152505050565b6000610d77610d7284610d24565b610d09565b905082815260208101848484011115610d9357610d92610ca4565b5b610d9e848285610d55565b509392505050565b600082601f830112610dbb57610dba610b37565b5b8135610dcb848260208601610d64565b91505092915050565b600060208284031215610dea57610de9610b2d565b5b600082013567ffffffffffffffff811115610e0857610e07610b32565b5b610e1484828501610da6565b91505092915050565b600073ffffffffffffffffffffffffffffffffffffffff82169050919050565b6000610e4882610e1d565b9050919050565b610e5881610e3d565b82525050565b6000602082019050610e736000830184610e4f565b92915050565b60008060008060408587031215610e9357610e92610b2d565b5b600085013567ffffffffffffffff811115610eb157610eb0610b32565b5b610ebd87828801610b46565b9450945050602085013567ffffffffffffffff811115610ee057610edf610b32565b5b610eec87828801610b46565b925092505092959194509250565b6000819050919050565b610f0d81610efa565b82525050565b6000602082019050610f286000830184610f04565b92915050565b600081905092915050565b6000610f458385610f2e565b9350610f52838584610d55565b82840190509392505050565b6000610f6b828486610f39565b91508190509392505050565b7f4e487b7100000000000000000000000000000000000000000000000000000000600052602260045260246000fd5b60006002820490506001821680610fbe57607f821691505b60208210811415610fd257610fd1610f77565b5b50919050565b7f6e6f7420656e6f756768206d6174696320706169640000000000000000000000600082015250565b600061100e601583610bf4565b915061101982610fd8565b602082019050919050565b6000602082019050818103600083015261103d81611001565b9050919050565b6000604082019050818103600083015261105e8185610c49565b905061106d6020830184610e4f565b9392505050565b7f4e487b7100000000000000000000000000000000000000000000000000000000600052603260045260246000fd5b7f4e487b7100000000000000000000000000000000000000000000000000000000600052601160045260246000fd5b60006110dd82610efa565b91506110e883610efa565b9250827fffffffffffffffffffffffffffffffffffffffffffffffffffffffffffffffff0382111561111d5761111c6110a3565b5b828201905092915050565b600061113382610efa565b91507fffffffffffffffffffffffffffffffffffffffffffffffffffffffffffffffff821415611166576111656110a3565b5b60018201905091905056fea26469706673582212204f604844ef8a2824c1850dc119c5048ac86d478a58d55298561d630c37c3ccc764736f6c634300080a003354484953204953204d5920444f4d41494e5320434f4e54524143542e204e4943452e",
  "linkReferences": {},
  "deployedLinkReferences": {}
}